{
  "contractName": "Scorecard",
  "abi": [
    {
      "inputs": [],
      "stateMutability": "nonpayable",
      "type": "constructor"
    },
    {
      "anonymous": false,
      "inputs": [
        {
          "indexed": false,
          "internalType": "string",
          "name": "_studentFirstName",
          "type": "string"
        },
        {
          "indexed": false,
          "internalType": "string",
          "name": "_studentLastName",
          "type": "string"
        },
        {
          "indexed": false,
          "internalType": "uint256",
          "name": "_studentId",
          "type": "uint256"
        }
      ],
      "name": "studentAdded",
      "type": "event"
    },
    {
      "anonymous": false,
      "inputs": [
        {
          "indexed": false,
          "internalType": "uint256",
          "name": "_studentId",
          "type": "uint256"
        },
        {
          "indexed": false,
          "internalType": "uint256",
          "name": "_englishMarks",
          "type": "uint256"
        },
        {
          "indexed": false,
          "internalType": "uint256",
          "name": "_mathMarks",
          "type": "uint256"
        },
        {
          "indexed": false,
          "internalType": "uint256",
          "name": "_scienceMarks",
          "type": "uint256"
        }
      ],
      "name": "studentScoresRecorded",
      "type": "event"
    },
    {
      "inputs": [],
      "name": "classTeacher",
      "outputs": [
        {
          "internalType": "address",
          "name": "",
          "type": "address"
        }
      ],
      "stateMutability": "view",
      "type": "function"
    },
    {
      "inputs": [
        {
          "internalType": "string",
          "name": "_studentFirstName",
          "type": "string"
        },
        {
          "internalType": "string",
          "name": "_studentLastName",
          "type": "string"
        }
      ],
      "name": "addStudentDetails",
      "outputs": [],
      "stateMutability": "nonpayable",
      "type": "function"
    },
    {
      "inputs": [
        {
          "internalType": "uint256",
          "name": "_studentId",
          "type": "uint256"
        },
        {
          "internalType": "uint256",
          "name": "_englishMarks",
          "type": "uint256"
        },
        {
          "internalType": "uint256",
          "name": "_mathMarks",
          "type": "uint256"
        },
        {
          "internalType": "uint256",
          "name": "_scienceMarks",
          "type": "uint256"
        }
      ],
      "name": "addStudentScores",
      "outputs": [],
      "stateMutability": "nonpayable",
      "type": "function"
    }
  ],
  "bytecode": "0x6080604052600060015534801561001557600080fd5b50336000806101000a81548173ffffffffffffffffffffffffffffffffffffffff021916908373ffffffffffffffffffffffffffffffffffffffff160217905550610b01806100656000396000f3fe608060405234801561001057600080fd5b50600436106100415760003560e01c80634c94ebbb14610046578063a24232c514610062578063be645d0a1461007e575b600080fd5b610060600480360381019061005b919061034b565b61009c565b005b61007c600480360381019061007791906104f8565b6101ab565b005b6100866102dd565b60405161009391906105b1565b60405180910390f35b338073ffffffffffffffffffffffffffffffffffffffff1660008054906101000a900473ffffffffffffffffffffffffffffffffffffffff1673ffffffffffffffffffffffffffffffffffffffff161461012b576040517f08c379a00000000000000000000000000000000000000000000000000000000081526004016101229061064f565b60405180910390fd5b60006003600087815260200190815260200160002090508581600001819055508481600101819055508381600201819055508281600301819055507ff37378b436df9c133c295a383bc635d84430a23d7801ffa2dbfd18f9e191156a8686868660405161019b949392919061067e565b60405180910390a1505050505050565b338073ffffffffffffffffffffffffffffffffffffffff1660008054906101000a900473ffffffffffffffffffffffffffffffffffffffff1673ffffffffffffffffffffffffffffffffffffffff161461023a576040517f08c379a00000000000000000000000000000000000000000000000000000000081526004016102319061064f565b60405180910390fd5b600060026000600154815260200190815260200160002090508381600001908161026491906108da565b508281600101908161027691906108da565b5060015481600201819055507faee3b08f60bd17d98cf5318d54d8104d3f63cd7878cb5ee81a3ab7d3c8ef1d3d84846001546040516102b793929190610a0f565b60405180910390a1600160008154809291906102d290610a83565b919050555050505050565b60008054906101000a900473ffffffffffffffffffffffffffffffffffffffff1681565b6000604051905090565b600080fd5b600080fd5b6000819050919050565b61032881610315565b811461033357600080fd5b50565b6000813590506103458161031f565b92915050565b600080600080608085870312156103655761036461030b565b5b600061037387828801610336565b945050602061038487828801610336565b935050604061039587828801610336565b92505060606103a687828801610336565b91505092959194509250565b600080fd5b600080fd5b6000601f19601f8301169050919050565b7f4e487b7100000000000000000000000000000000000000000000000000000000600052604160045260246000fd5b610405826103bc565b810181811067ffffffffffffffff82111715610424576104236103cd565b5b80604052505050565b6000610437610301565b905061044382826103fc565b919050565b600067ffffffffffffffff821115610463576104626103cd565b5b61046c826103bc565b9050602081019050919050565b82818337600083830152505050565b600061049b61049684610448565b61042d565b9050828152602081018484840111156104b7576104b66103b7565b5b6104c2848285610479565b509392505050565b600082601f8301126104df576104de6103b2565b5b81356104ef848260208601610488565b91505092915050565b6000806040838503121561050f5761050e61030b565b5b600083013567ffffffffffffffff81111561052d5761052c610310565b5b610539858286016104ca565b925050602083013567ffffffffffffffff81111561055a57610559610310565b5b610566858286016104ca565b9150509250929050565b600073ffffffffffffffffffffffffffffffffffffffff82169050919050565b600061059b82610570565b9050919050565b6105ab81610590565b82525050565b60006020820190506105c660008301846105a2565b92915050565b600082825260208201905092915050565b7f4f6e6c792074686520636c61737320746561636865722068617320616363657360008201527f7320746f20746869732066756e6374696f6e0000000000000000000000000000602082015250565b60006106396032836105cc565b9150610644826105dd565b604082019050919050565b600060208201905081810360008301526106688161062c565b9050919050565b61067881610315565b82525050565b6000608082019050610693600083018761066f565b6106a0602083018661066f565b6106ad604083018561066f565b6106ba606083018461066f565b95945050505050565b600081519050919050565b7f4e487b7100000000000000000000000000000000000000000000000000000000600052602260045260246000fd5b6000600282049050600182168061071557607f821691505b602082108103610728576107276106ce565b5b50919050565b60008190508160005260206000209050919050565b60006020601f8301049050919050565b600082821b905092915050565b6000600883026107907fffffffffffffffffffffffffffffffffffffffffffffffffffffffffffffffff82610753565b61079a8683610753565b95508019841693508086168417925050509392505050565b6000819050919050565b60006107d76107d26107cd84610315565b6107b2565b610315565b9050919050565b6000819050919050565b6107f1836107bc565b6108056107fd826107de565b848454610760565b825550505050565b600090565b61081a61080d565b6108258184846107e8565b505050565b5b818110156108495761083e600082610812565b60018101905061082b565b5050565b601f82111561088e5761085f8161072e565b61086884610743565b81016020851015610877578190505b61088b61088385610743565b83018261082a565b50505b505050565b600082821c905092915050565b60006108b160001984600802610893565b1980831691505092915050565b60006108ca83836108a0565b9150826002028217905092915050565b6108e3826106c3565b67ffffffffffffffff8111156108fc576108fb6103cd565b5b61090682546106fd565b61091182828561084d565b600060209050601f8311600181146109445760008415610932578287015190505b61093c85826108be565b8655506109a4565b601f1984166109528661072e565b60005b8281101561097a57848901518255600182019150602085019450602081019050610955565b868310156109975784890151610993601f8916826108a0565b8355505b6001600288020188555050505b505050505050565b60005b838110156109ca5780820151818401526020810190506109af565b60008484015250505050565b60006109e1826106c3565b6109eb81856105cc565b93506109fb8185602086016109ac565b610a04816103bc565b840191505092915050565b60006060820190508181036000830152610a2981866109d6565b90508181036020830152610a3d81856109d6565b9050610a4c604083018461066f565b949350505050565b7f4e487b7100000000000000000000000000000000000000000000000000000000600052601160045260246000fd5b6000610a8e82610315565b91507fffffffffffffffffffffffffffffffffffffffffffffffffffffffffffffffff8203610ac057610abf610a54565b5b60018201905091905056fea2646970667358221220828e49fc497015dfb902ff457e5db116fd7bc57c63e3694f0b533b9e3e84781d64736f6c63430008130033",
  "immutableReferences": {},
  "source": "// SPDX-License-Identifier: GPL-3.0\r\n\r\npragma solidity >=0.4.0 <0.9.0;\r\n\r\n/**\r\n * @title Storage\r\n * @dev Store & retrieve value in a variable\r\n * @custom:dev-run-script ./scripts/deploy_with_ethers.ts\r\n */\r\n\r\ncontract Scorecard{\r\n\r\n    address public classTeacher;\r\n    uint256 studentCount = 0;\r\n\r\n    constructor(){\r\n        classTeacher = msg.sender;\r\n    }\r\n\r\n    modifier onlyClassTeacher(address _classTeacher){\r\n        require(classTeacher == _classTeacher, \"Only the class teacher has access to this function\");\r\n        _;\r\n    }\r\n\r\n    struct studentDetails{\r\n        string studentFirstName;\r\n        string studentLastName;\r\n        uint256 id;\r\n    }\r\n\r\n    struct Score{\r\n        uint256 studentId;\r\n        uint256 englishMarks;\r\n        uint256 mathMarks;\r\n        uint256 scienceMarks;\r\n    \r\n    }\r\n\r\n    mapping (uint => studentDetails) students;\r\n\r\n    mapping (uint => Score) scores;\r\n\r\n    event studentAdded (string _studentFirstName , string _studentLastName, uint256 _studentId);\r\n\r\n    event studentScoresRecorded(uint256 _studentId, uint256 _englishMarks, uint256 _mathMarks, uint256 _scienceMarks);\r\n\r\n\r\n    function addStudentDetails(string memory _studentFirstName\r\n                                , string memory _studentLastName) public onlyClassTeacher(msg.sender) {\r\n\r\n        studentDetails storage studentObj = students[studentCount];\r\n\r\n        studentObj.studentFirstName = _studentFirstName;\r\n        studentObj.studentLastName = _studentLastName;\r\n        studentObj.id  = studentCount;\r\n        emit studentAdded (_studentFirstName, _studentLastName, studentCount);\r\n        studentCount++;\r\n    }\r\n\r\n    function addStudentScores( uint256 _studentId,\r\n                                uint256 _englishMarks,\r\n                                uint256 _mathMarks,\r\n                                uint256 _scienceMarks) public onlyClassTeacher(msg.sender){\r\n\r\n        Score storage scoreObject = scores[_studentId];\r\n\r\n        scoreObject.studentId = _studentId;\r\n        scoreObject.englishMarks = _englishMarks;\r\n        scoreObject.mathMarks = _mathMarks;\r\n        scoreObject.scienceMarks = _scienceMarks;\r\n        emit studentScoresRecorded( _studentId,  _englishMarks,  _mathMarks,  _scienceMarks);\r\n    }\r\n\r\n\r\n\r\n\r\n\r\n\r\n}",
  "sourcePath": "C:\\Users\\Riki AS\\BC_PROJECT\\contracts\\Scorecard.sol",
  "compiler": {
    "name": "solc",
    "version": "0.8.19+commit.7dd6d404.Emscripten.clang"
  },
  "schemaVersion": "3.4.13",
  "updatedAt": "2023-05-06T07:27:39.254Z",
  "devdoc": {
    "custom:dev-run-script": "./scripts/deploy_with_ethers.ts",
    "details": "Store & retrieve value in a variable",
    "kind": "dev",
    "methods": {},
    "title": "Storage",
    "version": 1
  },
  "userdoc": {
    "kind": "user",
    "methods": {},
    "version": 1
  }
}